:100000000C942E000C9440000C947A000C94400048
:100010000C9440000C9440000C9440000C94400060
:100020000C9440000C9440000C9440000C94400050
:100030000C9440000C9440000C9440000C94400040
:100040000C9440000C9440000C9440000C94400030
:100050000C9440000C9440000C94400011241FBEEE
:10006000CFEFD4E0DEBFCDBF21E0A0E0B1E001C022
:100070001D92A330B207E1F70E9457000C94C9010A
:100080000C94000083E08093610080E880BF8FEFD4
:1000900080937E0088E183BB8EE085B981ED84B9D1
:1000A0008AE08DB988E080BB83EF81BB08950E9410
:1000B000420080EC8DBB739A60E080E895E20E947C
:1000C000C00085E6809300011092020110920101A8
:1000D0002F9AA49A809100010E94FF002FE986E8E0
:1000E00091E0215080409040E1F700C000000E9464
:1000F0009100EECF1F920F920FB60F9211248F93A3
:100100009F938091010190910201019690930201C9
:10011000809301019F918F910F900FBE0F901F90C0
:100120001895CF93DF93F89488E08093B60081E030
:100130008093B00030E8E2EBF0E0A6EBB0E050E0F6
:1001400040E0C6E6D0E010828C918770E9F7852FF9
:10015000942F01962081283CE0F3883623E0920713
:1001600020F088818150888306C08736934028F428
:1001700088818F5F8883315031F7DF91CF91089567
:10018000CF93C62FAA2797FDA095BA2F880F991F46
:10019000AA1FBB1F880F991FAA1FBB1F9C01AD017F
:1001A000220F331F441F551F220F331F441F551F9B
:1001B00060E079E08DE390E00E94A701CA01B901F7
:1001C00061507109810991090E9407010E9444014F
:1001D000272F33272093C5006093C400C13019F442
:1001E00082E08093C000E2ECF0E080818C6280834A
:1001F00088E18093C10080E18083CF910895E0EC95
:10020000F0E0908195FFFDCF8093C6000895E894BB
:1002100009C097FB3EF490958095709561957F4F4E
:100220008F4F9F4F9923A9F0F92F96E9BB279395FC
:10023000F695879577956795B795F111F8CFFAF40C
:10024000BB0F11F460FF1BC06F5F7F4F8F4F9F4F3D
:1002500016C0882311F096E911C0772321F09EE89B
:10026000872F762F05C0662371F096E8862F70E001
:1002700060E02AF09A95660F771F881FDAF7880FDB
:100280009695879597F9089541D0A8F19E57A8F1C2
:10029000985160F039F1983070F5092E9927660F62
:1002A000771F881F991F0A94D1F71CC0BB27993F5D
:1002B0004CF4B111B1E0B62B672F782F8827985FE7
:1002C000B1F708C0869577956795B79508F4B16042
:1002D0009395C1F7BB0F30F411F460FF03C06F5F5B
:1002E0007F4F8F4F3EF490958095709561957F4F2D
:1002F0008F4F9F4F0895689424C022C057FD905897
:10030000440F551F59F05F3F71F04795880F97FBD9
:10031000991F61F09F3F79F0879508951216130693
:100320001406551FF2CF4695F1DF08C016161706C2
:100330001806991FF1CF86957105610508940895F7
:10034000E894BB2766277727CB0197F90895A1E2A8
:100350001A2EAA1BBB1BFD010DC0AA1FBB1FEE1F3F
:10036000FF1FA217B307E407F50720F0A21BB30B8A
:10037000E40BF50B661F771F881F991F1A9469F706
:1003800060957095809590959B01AC01BD01CF0162
:060390000895F894FFCF70
:00000001FF
